:10b50000c0b506c0b50ff8f9aff841bff8005ff855
:10b5100004aff840bff8005f1f5ff800aff840bf0e
:10b520009e5ff8f0a6f8b5b6f8f7a2f841b2e2c00f
:10b53000ff3ff8b5b6f8d5a6f841b2f8f7a2e2c0d9
:10b54000ff3ff8b9bff833afd4ff09d5e273ff412d
:10b550003b59ff1b3359f801c8f800f660f0d5e2fb
:10b5600073ff613b6cff1b336cf801c8f800f66099
:10b57000f0d5f800bdad0fd4bad63b84fb2d328494
:10b58000f801f6d5e28c739c738e73ae0ffb2d3ae7
:10b5900095f801ae1f0fff303bc9ff0a33c98dacd0
:10b5a000fead9dbc7ebd8dfead9d7ebd8c528df4ed
:10b5b000ad9c529df4bd8dfead9d7ebd4fff3052c2
:10b5c0008df4ad9d7c00bd3095c46072ae72bcf050
:10b5d000acf800f6d5f841b2f8f7a2f8bfbff84dc5
:10b5e000afd4ff09f841bff8f9aff8005fc0b8bdac
:10b5f000f841b2f8f7a2c0b5f9d4b89118d4b9118e
:10b60000f8b9bff856afd4ff09f840bff825afd45a
:10b61000ff0fd4b542f800b8a8b9a919d4b891f869
:10b6200040bff825afd4b572c3b6309db88da828f9
:10b630000ffb2ccab6411fd4b572c3b6419db98d5c
:10b64000a90fd4b55fcbb64c0fff205f0fff41c2ef
:10b65000b6dd0fff52c2b6e30fff44c2b8470fff7b
:10b660004ec2b6c60fff55c2b81a0fff50c2b80778
:10b670000fff49c2b7570fff54c2b74a0fff42c26c
:10b68000b7440fff4bc2b7060fff47c2b6f10fff1b
:10b6900051c280030fff56c2b6b20fff53c2beaef7
:10b6a0000fff4cc2bef8f8bfbff897afd4ff09c078
:10b6b000b5f9f810a7f840b7f800aff87ebf475fbc
:10b6c0001f475fc0c203f841bff8f9aff8005ff849
:10b6d00040bff804aff8005f1f5fc0b8bdd4b95acf
:10b6e000c0b5f9f840bff810af4fb04fa0d0c0b50b
:10b6f000f9d4b89cd4b8d0cbb700d4b8f5d4b89ca2
:10b70000d4b866c0b5f9d4b89c89cab71799cab776
:10b7100017d4b866c0b5f9d4b891d4b8d00afc0132
:10b7200052ac8af4ad9a7c00bd8cc2b7344d5a1a23
:10b730002cc0b7292a2d0ac2b740fc01acc0b729da
:10b7400029c0b709d4b8f5c0b74ef800b8a8d4b826
:10b750009cd4b866c0b5f91fd4b89c0fcab78bd4b7
:10b76000b89118d4b911f83ad4ff03f840bff825be
:10b77000afd4ff0f7e73d4b54260f0f6c3b5f9f8cd
:10b7800040bff825afd4b791c0b75fd4b791c0b56b
:10b79000f9f800acbc8f739f731c4fff20c3b7999f
:10b7a0008c731c1cd4b8f58c528aa9f4ad9c529aa7
:10b7b000b974bd9dfc01bd99fc01b9d4b891d4b850
:10b7c000d0095d8a5289f7cab7d49a5299f7cab795
:10b7d000d4c0b7d9292dc0b7c1d4b891d4b8d060de
:10b7e00072fc015aff011aac2c72bff0af8cc2b7c9
:10b7f000f84f5a1a2cc0b7edf80d5a1af80a5ad455
:10b80000b89118d4b89cd589cab81299cab812c0d0
:10b81000b5f9d4b8661829c0b80789cab82899ca32
:10b82000b828d4b866c0b5f9d4b89188cab83f98da
:10b83000cab83ff8b9bff846afd4ff09c0b5f92878
:10b84000d4b89c29c0b81a89cab85599cab855d471
:10b85000b866c0b5f9d4b89118d4b8d0c3b8b1d4cb
:10b86000b89c29c0b847d4b8d0cbb86dd518d4b9d6
:10b870001128f8b9bff858afd4ff094aacc2b88d47
:10b880008cc2b88c4ad4ff032cc0b880d5d4b54242
:10b89000d5f840bff804af4fb84fa8d58f739f734a
:10b8a000f840bff804af985f1f885f6072bff0afc9
:10b8b000d5f8b9bff836afd4ff09c0b5f9f8b9bfac
:10b8c000f82bafd4ff09f800a8b8d4b89cc0b5f9dc
:10b8d000f841baf8f9aa98bc88ac8cc2b8ee4ac252
:10b8e000b8f2528af4aa9a7c00ba2cc0b8dafc00ea
:10b8f000f6d5ff00d5f841baf8f9aaf800b8a84a79
:10b90000c2b90f528af4aa9a7c00ba18c0b8ff2aaa
:10b91000d598bd88adf840bff815afd4ff60f800ea
:10b920005ff840bff815afd4ff09d54e65772066a4
:10b93000696c650d0a00456e64206f66206275664d
:10b940006665720a0d00546f70206f66206275661e
:10b950006665720a0d003e003a00d4b8f51af84048
:10b96000bff80eaf9a5f1f8a5ff8005af840bff821
:10b970000aaf9a5f1f8a5ff840bff802aff8005f16
:10b98000baaaf841bdf8f9add4bd2bf840bff80212
:10b99000aff8015ff800baaaf841bdf8f9add4bd1f
:10b9a0002bd54fc2b9abff21cbb9a22fd5d4bb8dbc
:10b9b000f840b8f810a89d58188d58c0ba3cd4bbb0
:10b9c0008d9dba8daac0ba3cd4ba700fff27c2b9f8
:10b9d000e8d4bb8d8dd4ba7bd4ba700fff2ccab912
:10b9e000e51fc0b9c8c0ba3c1f4fc2b9e5aeff27ba
:10b9f000c2b9d88ed4ba7bc0b9e9d4ba700fff27c8
:10ba0000c2ba1ed4bb8d9dd4ba7b8dd4ba7bd4bab6
:10ba1000700fff2ccaba1b1fc0b9fac0ba3c1f4f27
:10ba2000c2ba1baeff27c2ba0e8ed4ba7bc0ba1ff1
:10ba3000d4bb8d8dfa0fc2ba40d4ba7bf800f6d5cc
:10ba4000f801f6d5d4bb8d8dc2ba40ff08c3ba4009
:10ba50008df960d4ba7bc0ba3cd4bb8d8dc2ba40dc
:10ba6000ff08c3ba408dfc08f960d4ba7bc0ba3c69
:10ba70004fc2ba79ff21cbba702fd55af840b8f827
:10ba800002a808c2bad48d739d738f739f73f84058
:10ba9000bff803af0fff04cabaa6f8005ff8bfbf34
:10baa000f89fafd4ff090aadf840bff8a6afd4ffa6
:10bab00048f8205f1ff8005ff840bff8a6afd4ff3a
:10bac00009f840bff803af0ffc015f6072bf72afaf
:10bad00072bdf0ad1ad5aeff30cbbae5ff0ac3bade
:10bae000e5fc008ed5ff008ed573d4bad6cbbb1142
:10baf00060f073ff41cbbb0cff06cbbb1160f0ffc6
:10bb000061cbbb0dff06cbbb12c0bb0d60f801f6cd
:10bb1000d560f800f6d573d4bad6c3bb2260f0ff67
:10bb200030d560f0fadfff37d58f739f730fff2199
:10bb30000fff2cc2bb82cbbb820fd4bad6c3bb448f
:10bb40001fc0bb2d0fff21cbbb7a0fff48c2bb61cb
:10bb50000fff68c2bb610fd4bae9c3bb7a1fc0bb79
:10bb6000441f0fff2cc2bb6e0fff21c3bb7a607254
:10bb7000bff0afd4ff451ff801d56072bff0aff83a
:10bb800003d56072bff0afd4ff5df800d5d4ba70b2
:10bb90000fc2bbe6d4bad6cbbbd60fff52c2bbb8de
:10bba0000fff72c2bbb8d4bdd8c3bbb0f800f6d586
:10bbb000f800bdadf807f6d51f0fd4bae9c3bbd264
:10bbc0001f0f2fff21c3bbd20fd4bb16adf800bd92
:10bbd000f6d52fc0bba6d4bb29ff03c2bbe2f80039
:10bbe000f6d5f805f6d5f800bdadf803f6d5f84062
:10bbf000b8f80ca89a58188a58f840b8f802a8085b
:10bc0000c2bc328f739f73f840bff803aff8005f78
:10bc10009abd8aadf840bff8a6afd4ff4bf8205fbd
:10bc20001ff8005ff840bff8a6afd4ff096072bfed
:10bc3000f0af0fff21cbbc639fb98fa90fff3ac2b2
:10bc4000bc4c0fff21cbbc4c1fc0bc3cf8005f8f2d
:10bc5000739f7399bf89afd4be6f6072bff0aff8a6
:10bc60003a5f1ff8bfb9f8a7a9d4ba70d4bcf5cb16
:10bc7000bc8219191909cabc6cf801f6d5f800c0c4
:10bc8000bc7b49ff01cabc8f49d4ba7bc0bc7dffd5
:10bc900001cabca549d4ba7bd4bb8dc3bce88dd442
:10bca000ba7bc0bc7dff01cabcbf49d4ba7bd4bb40
:10bcb0008dc3bce89dd4ba7b8dd4ba7bc0bc7dff5c
:10bcc00001cabcd6f840b7f812a7f8c057174957b1
:10bcd000170957c04012d4bb8dc3bce88dfa0f5270
:10bce00049f1d4ba7bc0bc7df8bfbff897afd4ff91
:10bcf00009f800f6d58f739f7349aefa80cabd1656
:10bd00004f528ef7c2bcf949fa80c2bd07f801f65e
:10bd10006072bff0afd54f528efa7ff7cabd0d0fdc
:10bd2000ff21c3bd0df800f66060d5f840bff825cf
:10bd3000afd4bdb4c3bdb38cc2bd2bf825aff840a2
:10bd4000bfd4bf23f840bff825af8d739d73d4bb1c
:10bd5000eef840bff802af0fc2bd9f7673f840bf48
:10bd6000f803af0f73ff04c2bd8af840bff8a6af57
:10bd7000f8205f1f5f1f5f1ff8005f1f2f2f2f2fff
:10bd8000d4ff0960f0fc01c0bd6460f840bff82535
:10bd9000afd4ff09f8b9bff833afd4ff0960fecbc9
:10bda000bdabf8bfbff897afd4ff096072bdf0ad6f
:10bdb000c0bd2bd5f800bcac0dc2bdd4ff02ae1d7a
:10bdc0008ec2bdcc4d5f1f1c2ec0bdc0f8005f1dd4
:10bdd0001dfc00d5ff005fd50fff24cabdeef84063
:10bde000bdf80cad4dae0dad8ebdf800f6d5f840ea
:10bdf000b8f802a808cabdfef800bdadf6d5f840f7
:10be0000b8f80ea848ae08a88eb808cabe12f80145
:10be1000f6d58f739f734852fa80cabe324ff7c26d
:10be2000be1648fa80c2be2218186072bff0afc0ba
:10be3000be0a02fa7f524ff7cabe284faeff2ec28b
:10be4000be658eff21c3be286072bff0aff800aea2
:10be500048bd48ad8eff31c2be5ef800f6d59dad3f
:10be6000f800f6bdd50fae6072bff0afc0be50f89f
:10be700040b8f802a808c2be7ad5f840b8f80aa8b7
:10be800048ae08a88eb84faeff21cbbe938e58188f
:10be9000c0be862808f98058189a58188a5818f889
:10bea0000058f840bff80aaf985f1f885fd5d4f0fc
:10beb00000f8f9acf841bc0cc2bec6528cf4ac9c84
:10bec0007c00bcc0beb71c9cff40bcf825aff8404e
:10bed000bf9c5f1f8c5f2f8c739c73f802acf800c3
:10bee000bcd4f009f800aff840bf6072bcf0acd42d
:10bef000f009d4f00cc0b5f9d4f003f825aff84040
:10bf0000bff802acf800bcd4f006f825aff840bf8b
:10bf10004fbc0facf800aff840bfd4f006d4f00f20
:10bf2000c0b5f90fff27c2bf400fc2bf3fff61cbb3
:10bf3000bf3bff1bc3bf3b0fff205f1fc0bf23d50d
:10bf40001f4fc2bf3fff27c2bf23c0bf414564741c
:10bf50002f41736d202830322f32312f3036290a8d
:10bf60000d28632920436f707972696768742032e5
:10bf7000303036206279204d69636861656c2048f5
:10bf80002e2052696c65790a0d0046696c65204562
:10bf900072726f720a0d004572726f720a0d000a9a
:10bfa0000d2020202020004144c401f4004144c35e
:10bfb000017400414443c9027c004144c902fc00b1
:10bfc000414ec401f200414ec902fa0042b10234ae
:10bfd0000042b202350042b302360042b4023700da
:10bfe0004244c6023300424eb1023c00424eb2020d
:10bff0003d00424eb3023e00424eb4023f00424e6c
:10c00000c6023b00424ed102390042d10231004209
:10c01000d202300042da023200424eda023a0044e2
:10c0200045c30520004449d30171004748c9059024
:10c0300000474ccf0580004944cc010000494ec365
:10c04000051000494ed004ba594952d80160004c3d
:10c050004244c603c3004c424ec603cb004c424e82
:10c06000d103c9004c424eda03ca004c42d103c18d
:10c07000004c42d203c0004c44c10540004c44c9ae
:10c0800002f8004c44ce04ba304c44d801f0004cc5
:10c090004458c10172004c5344c601cf004c53496f
:10c0a000c501cc004c534ec601c7004c534ed101c4
:10c0b000c5004c534eda01c6004c53d101cd004ca3
:10c0c00053da01ce004d4152cb0179004e42d201ec
:10c0d00038004e4c42d201c2004e4fd001c4004f36
:10c0e000d201f1004f52c902f9004f55d404ba44ad
:10c0f0005048c905b000504ccf05a0005245d401ae
:10c1000070005245d1017a0053c401f5005341d665
:10c110000178005344c2017500534442c9027d00b6
:10c120005344c902fd005345d005d0005345d10109
:10c130007b005345d805e0005348cc01fe0053482e
:10c14000d201f60053484cc3017e00534852c3014c
:10c15000760053cd01f700534dc2017700534d4295
:10c16000c9027f00534dc902ff005354d20550004d
:10c17000535458c4017300584fd201f3005852c9a8
:10c1800002fb00454ec404b9ad4f52c704b9be44ca
:0ac19000c204b9c844d704b9fa008c
:00000001ff
