:10b50000c0b506c0b50ff8f9aff811bff8005ff885
:10b5100004aff810bff8005f1f5ff800aff810bf6e
:10b520009e5ff8f0a6f8b5b6f8f7a2f811b2e2c03f
:10b53000ff3ff8b5b6f8d5a6f811b2f8f7a2e2c009
:10b54000ff3ff8b9bff831afd4ff09d5e273ff412f
:10b550003b59ff1b3359f801c8f800f660f0d5e2fb
:10b5600073ff613b6cff1b336cf801c8f800f66099
:10b57000f0d5f800bdad0fd4bad43b84fb2d328496
:10b58000f801f6d5e28c739c738e73ae0ffb2d3ae7
:10b5900095f801ae1f0fff303bc9ff0a33c98dacd0
:10b5a000fead9dbc7ebd8dfead9d7ebd8c528df4ed
:10b5b000ad9c529df4bd8dfead9d7ebd4fff3052c2
:10b5c0008df4ad9d7c00bd3095c46072ae72bcf050
:10b5d000acf800f6d5f811b2f8f7a2f8bfbff84af8
:10b5e000afd4ff09f811bff8f9aff8005fc0b8b6e3
:10b5f000f811b2f8f7a2c0b5f9d4b88a18d4b90fc7
:10b60000f8b9bff854afd4ff09f810bff825afd48c
:10b61000ff0fd4b542f800b8a8b9a919d4b88af870
:10b6200010bff825afd4b572c3b6309db88da82829
:10b630000ffb2ccab6411fd4b572c3b6419db98d5c
:10b64000a90fd4b55fcbb64c0fff205f0fff41c2ef
:10b65000b6dd0fff52c2b6e30fff44c2b8400fff82
:10b660004ec2b6c60fff55c2b8130fff50c2b80086
:10b670000fff49c2b7500fff54c2b7430fff42c27a
:10b68000b73d0fff4bc2b7060fff47c2b6f10fff22
:10b6900051c280030fff56c2b6b20fff53c2beacf9
:10b6a0000fff4cc2bef5f8bfbff894afd4ff09c07e
:10b6b000b5f9f810a7f810b7f800aff87ebf475fec
:10b6c0001f475fc0c203f811bff8f9aff8005ff879
:10b6d00010bff804aff8005f1f5fc0b8b6d4b95808
:10b6e000c0b5f9f810bff810af4fb04fa0d0c0b53b
:10b6f000f9d4b895d4b8c9cbb700d4b8f3d4b895b9
:10b70000d4b85fc0b5f9d4b8c9c3b7349abd8aad4f
:10b71000d4b895895288f4a89952987c00b8d4b8c6
:10b72000c90ac2b733fc01ac4a5d1d2c8ccab728cc
:10b73000c0b7215dd4b88ad4b85fc0b5f9d4b8f326
:10b74000c0b747f800b8a8d4b895d4b85fc0b5f969
:10b750001fd4b8950fcab784d4b88a18d4b90ff8d3
:10b760003ad4ff03f810bff825afd4ff0f7e73d48f
:10b77000b54260f0f6c3b5f9f810bff825afd4b7fd
:10b780008ac0b758d4b78ac0b5f9f800acbc8f737b
:10b790009f731c4fff20c3b7928c731c1cd4b8f34b
:10b7a0008c528aa9f4ad9c529ab974bd9dfc01bd1e
:10b7b00099fc01b9d4b88ad4b8c9095d8a5289f70d
:10b7c000cab7cd9a5299f7cab7cdc0b7d2292dc002
:10b7d000b7bad4b88ad4b8c96072fc015aff011a4a
:10b7e000ac2c72bff0af8cc2b7f14f5a1a2cc0b755
:10b7f000e6f80d5a1af80a5ad4b88a18d4b895d56a
:10b8000089cab80b99cab80bc0b5f9d4b85f182962
:10b81000c0b80089cab82199cab821d4b85fc0b5e8
:10b82000f9d4b88a88cab83898cab838f8b9bff80d
:10b8300044afd4ff09c0b5f928d4b89529c0b813ce
:10b8400089cab84e99cab84ed4b85fc0b5f9d4b851
:10b850008a18d4b8c9c3b8aad4b89529c0b840d4f6
:10b86000b8c9cbb866d518d4b90f28f8b9bff856ff
:10b87000afd4ff094aacc2b8868cc2b8854ad4ff9f
:10b88000032cc0b879d5d4b542d5f810bff804afb1
:10b890004fb84fa8d58f739f73f810bff804af98b7
:10b8a0005f1f885f6072bff0afd5f8b9bff834afe3
:10b8b000d4ff09c0b5f9f8b9bff829afd4ff09f82a
:10b8c00000a8b8d4b895c0b5f9f811baf8f9aa9893
:10b8d000bc88ac9ccab8db8cc2b8eb4ac2b8ef5289
:10b8e0008af4aa9a7c00ba2cc0b8d3fc00f6d52af8
:10b8f000ff00d5f811baf8f9aaf800b8a84ac2b9f9
:10b900000d528af4aa9a7c00ba18c0b8fd2ad598bc
:10b91000bd88adf810bff815afd4ff60f8005ff830
:10b9200010bff815afd4ff09d54e65772066696c56
:10b93000650d0a00456e64206f6620627566666557
:10b94000720a0d00546f70206f662062756666651e
:10b95000720a0d003e003a00d4b8f31af810bff88e
:10b960000eaf9a5f1f8a5ff8005af810bff80aaf4f
:10b970009a5f1f8a5ff810bff802aff8005fbaaa9b
:10b98000f811bdf8f9add4bd29f810bff802aff831
:10b99000015ff800baaaf811bdf8f9add4bd29d5f8
:10b9a0004fc2b9a9ff21cbb9a02fd5d4bb8bf810ba
:10b9b000b8f810a89d58188d58c0ba3ad4bb8b9dc2
:10b9c000ba8daac0ba3ad4ba6e0fff27c2b9e6d46c
:10b9d000bb8b8dd4ba79d4ba6e0fff2ccab9e31fd2
:10b9e000c0b9c6c0ba3a1f4fc2b9e3aeff27c2b949
:10b9f000d68ed4ba79c0b9e7d4ba6e0fff27c2bacf
:10ba00001cd4bb8b9dd4ba798dd4ba79d4ba6e0fbd
:10ba1000ff2ccaba191fc0b9f8c0ba3a1f4fc2ba30
:10ba200019aeff27c2ba0c8ed4ba79c0ba1dd4bbe6
:10ba30008b8dfa0fc2ba3ed4ba79f800f6d5f80168
:10ba4000f6d5d4bb8b8dc2ba3eff08c3ba3e8df982
:10ba500060d4ba79c0ba3ad4bb8b8dc2ba3eff0863
:10ba6000c3ba3e8dfc08f960d4ba79c0ba3a4fc265
:10ba7000ba77ff21cbba6e2fd55af810b8f802a8c2
:10ba800008c2bad28d739d738f739f73f810bff87d
:10ba900003af0fff04cabaa4f8005ff8bfbff89c59
:10baa000afd4ff090aadf810bff8a6afd4ff48f82d
:10bab000205f1ff8005ff810bff8a6afd4ff09f8a9
:10bac00010bff803af0ffc015f6072bf72af72bdb1
:10bad000f0ad1ad5aeff30cbbae3ff0ac3bae3fc30
:10bae000008ed5ff008ed573d4bad4cbbb0f60f0d7
:10baf00073ff41cbbb0aff06cbbb0f60f0ff61cbee
:10bb0000bb0bff06cbbb10c0bb0b60f801f6d560ca
:10bb1000f800f6d573d4bad4c3bb2060f0ff30d59b
:10bb200060f0fadfff37d58f739f730fff210fff90
:10bb30002cc2bb80cbbb800fd4bad4c3bb421fc0c6
:10bb4000bb2b0fff21cbbb780fff48c2bb5f0fffa2
:10bb500068c2bb5f0fd4bae7c3bb781fc0bb421f2c
:10bb60000fff2cc2bb6c0fff21c3bb786072bff00c
:10bb7000afd4ff451ff801d56072bff0aff803d511
:10bb80006072bff0afd4ff5df800d5d4ba6e0fc2bb
:10bb9000bbe4d4bad4cbbbd40fff52c2bbb60fffa9
:10bba00072c2bbb6d4bdd6c3bbaef800f6d5f800a2
:10bbb000bdadf807f6d51f0fd4bae7c3bbd01f0f32
:10bbc0002fff21c3bbd00fd4bb14adf800bdf6d5f9
:10bbd0002fc0bba4d4bb27ff03c2bbe0f800f6d53f
:10bbe000f805f6d5f800bdadf803f6d5f810b8f8ad
:10bbf0000ca89a58188a58f810b8f802a808c2bcbd
:10bc0000308f739f73f810bff803aff8005f9abdd1
:10bc10008aadf810bff8a6afd4ff4bf8205f1ff82d
:10bc2000005ff810bff8a6afd4ff096072bff0af95
:10bc30000fff21cbbc619fb98fa90fff3ac2bc4a4d
:10bc40000fff21cbbc4a1fc0bc3af8005f8f739f27
:10bc50007399bf89afd4be6d6072bff0aff83a5f21
:10bc60001ff8bfb9f8a4a9d4ba6ed4bcf3cbbc807a
:10bc700019191909cabc6af801f6d5f800c0bc79cf
:10bc800049ff01cabc8d49d4ba79c0bc7bff01ca47
:10bc9000bca349d4ba79d4bb8bc3bce68dd4ba79e2
:10bca000c0bc7bff01cabcbd49d4ba79d4bb8bc32d
:10bcb000bce69dd4ba798dd4ba79c0bc7bff01cae9
:10bcc000bcd4f810b7f812a7f8c05717495717098e
:10bcd00057c01012d4bb8bc3bce68dfa0f5249f18a
:10bce000d4ba79c0bc7bf8bfbff894afd4ff09f8d1
:10bcf00000f6d58f739f7349aefa80cabd144f52b8
:10bd00008ef7c2bcf749fa80c2bd05f801f6607231
:10bd1000bff0afd54f528efa7ff7cabd0b0fff2190
:10bd2000c3bd0bf800f66060d5f810bff825afd49e
:10bd3000bdb2c3bdb18cc2bd29f825aff810bfd4c8
:10bd4000bf20f810bff825af8d739d73d4bbecf8fe
:10bd500010bff802af0fc2bd9d7673f810bff80395
:10bd6000af0f73ff04c2bd88f810bff8a6aff8206c
:10bd70005f1f5f1f5f1ff8005f1f2f2f2f2fd4ff44
:10bd80000960f0fc01c0bd6260f810bff825afd4b7
:10bd9000ff09f8b9bff831afd4ff0960fecbbda9e8
:10bda000f8bfbff894afd4ff096072bdf0adc0bd5d
:10bdb00029d5f800bcac0dc2bdd2ff02ae1d8ec2ab
:10bdc000bdca4d5f1f1c2ec0bdbef8005f1d1dfc0f
:10bdd00000d5ff005fd50fff24cabdecf810bdf8f9
:10bde0000cad4dae0dad8ebdf800f6d5f810b8f81f
:10bdf00002a808cabdfcf800bdadf6d5f810b8f829
:10be00000ea848ae08a88eb808cabe10f801f6d52c
:10be10008f739f734852fa80cabe304ff7c2be1468
:10be200048fa80c2be2018186072bff0afc0be08ca
:10be300002fa7f524ff7cabe264faeff2ec2be6334
:10be40008eff21c3be266072bff0aff800ae48bdc2
:10be500048ad8eff31c2be5cf800f6d59dadf8004e
:10be6000f6bdd50fae6072bff0afc0be4ef810b8d1
:10be7000f802a808c2be78d5f810b8f80aa848aeeb
:10be800008a88eb84faeff21cbbe918e5818c0be09
:10be9000842808f98058189a58188a5818f80058b1
:10bea000f810bff80aaf985f1f885fd5d4f000f88c
:10beb000f9acf811bc4cc2bec4528cf4ac9c7c00f2
:10bec000bcc0beb59cff10bcf825aff810bf9c5f8e
:10bed0001f8c5f2f8c739c73f802acf800bcd4f0fd
:10bee00009f800aff810bf6072bcf0acd4f009d410
:10bef000f00cc0b5f9d4f003f825aff810bff80284
:10bf0000acf800bcd4f006f825aff810bf4fbc0f5a
:10bf1000acf800aff810bfd4f006d4f00fc0b5f9fc
:10bf20000fff27c2bf3d0fc2bf3cff61cbbf38ff31
:10bf30001bc3bf380fff205f1fc0bf20d51f4fc2dc
:10bf4000bf3cff27c2bf20c0bf3e4564742f417372
:10bf50006d202830322f32312f3036290a0d2863d8
:10bf60002920436f707972696768742032303036e7
:10bf7000206279204d69636861656c20482e2052eb
:10bf8000696c65790a0d0046696c65204572726faf
:10bf9000720a0d004572726f720a0d000a0d2020a0
:10bfa000202020004144c401f4004144c301740036
:10bfb000414443c9027c004144c902fc00414ec4d3
:10bfc00001f200414ec902fa0042b102340042b20d
:10bfd00002350042b302360042b40237004244c682
:10bfe000023300424eb1023c00424eb2023d0042da
:10bff0004eb3023e00424eb4023f00424ec6023be8
:10c0000000424ed102390042d102310042d2023008
:10c010000042da023200424eda023a004445c305d9
:10c0200020004449d30171004748c9059000474c9e
:10c03000cf0580004944cc010000494ec3051000e3
:10c04000494ed004ba574952d80160004c4244c608
:10c0500003c3004c424ec603cb004c424ed103c931
:10c06000004c424eda03ca004c42d103c1004c429c
:10c07000d203c0004c42da03c2004c44c105400068
:10c080004c44c902f8004c44ce04ba2e4c44d801aa
:10c09000f0004c4458c10172004c5344c601cf001b
:10c0a0004c5349c501cc004c534ec601c7004c53fc
:10c0b0004ed101c5004c534eda01c6004c53d1019c
:10c0c000cd004c53da01ce004d4152cb0179004ee8
:10c0d00042d20138004e4c42d201c8004e4fd0012e
:10c0e000c4004fd201f1004f52c902f9004f55d49c
:10c0f00004ba425048c905b000504ccf05a00052c8
:10c1000045d40170005245d1017a0053c401f500b5
:10c110005341d60178005344c2017500534442c9cb
:10c12000027d005344c902fd005345d005d00053a1
:10c1300045d1017b005345d805e0005348cc01feb2
:10c14000005348d201f60053484cc3017e005348c7
:10c1500052c301760053cd01f700534dc201770061
:10c16000534d42c9027f00534dc902ff005354d2c0
:10c17000055000535458c4017300584fd201f300c6
:10c180005852c902fb00454ec404b9ab4f52c70414
:0dc19000b9bc44c204b9c644d704b9f800d4
:00000001ff
