:10b50000c0b506c0b50ff8f9aff811bff8005ff885
:10b5100004aff810bff8005f1f5ff800aff810bf6e
:10b520009e5ff8f0a6f8b5b6f8f7a2f811b2e2c03f
:10b53000ff3ff8b5b6f8d5a6f811b2f8f7a2e2c009
:10b54000ff3ff8b9bff837afd4ff09d5e273ff4129
:10b550003b59ff1b3359f801c8f800f660f0d5e2fb
:10b5600073ff613b6cff1b336cf801c8f800f66099
:10b57000f0d5f800bdad0fd4bada3b84fb2d328490
:10b58000f801f6d5e28c739c738e73ae0ffb2d3ae7
:10b5900095f801ae1f0fff303bc9ff0a33c98dacd0
:10b5a000fead9dbc7ebd8dfead9d7ebd8c528df4ed
:10b5b000ad9c529df4bd8dfead9d7ebd4fff3052c2
:10b5c0008df4ad9d7c00bd3095c46072ae72bcf050
:10b5d000acf800f6d5f811b2f8f7a2f8bfbff850f2
:10b5e000afd4ff09f811bff8f9aff8005fc0b8bcdd
:10b5f000f811b2f8f7a2c0b5f9d4b89018d4b915bb
:10b60000f8b9bff85aafd4ff09f810bff825afd486
:10b61000ff0fd4b542f800b8a8b9a919d4b890f86a
:10b6200010bff825afd4b572c3b6309db88da82829
:10b630000ffb2ccab6411fd4b572c3b6419db98d5c
:10b64000a90fd4b55fcbb64c0fff205f0fff41c2ef
:10b65000b6dd0fff52c2b6e30fff44c2b8460fff7c
:10b660004ec2b6c60fff55c2b8190fff50c2b8067a
:10b670000fff49c2b7500fff54c2b7430fff42c27a
:10b68000b73d0fff4bc2b7060fff47c2b6f10fff22
:10b6900051c280030fff56c2b6b20fff53c2beb2f3
:10b6a0000fff4cc2befbf8bfbff89aafd4ff09c072
:10b6b000b5f9f810a7f810b7f800aff87ebf475fec
:10b6c0001f475fc0c203f811bff8f9aff8005ff879
:10b6d00010bff804aff8005f1f5fc0b8bcd4b95efc
:10b6e000c0b5f9f810bff810af4fb04fa0d0c0b53b
:10b6f000f9d4b89bd4b8cfcbb700d4b8f9d4b89ba1
:10b70000d4b865c0b5f9d4b8cfc3b7349abd8aad43
:10b71000d4b89b895288f4a89952987c00b8d4b8c0
:10b72000cf0ac2b733fc01ac4a5d1d2c8ccab728c6
:10b73000c0b7215dd4b890d4b865c0b5f9d4b8f914
:10b74000c0b747f800b8a8d4b89bd4b865c0b5f95d
:10b750001fd4b89b0fcab784d4b89018d4b915f8c1
:10b760003ad4ff03f810bff825afd4ff0f7e73d48f
:10b77000b54260f0f6c3b5f9f810bff825afd4b7fd
:10b780008ac0b758d4b78ac0b5f9f800acbc8f737b
:10b790009f731c4fff0932922f4fff20c3b7928c2b
:10b7a000731c1cd4b8f98c528aa9f4ad9c529ab976
:10b7b00074bd9dfc01bd99fc01b9d4b890d4b8cf3b
:10b7c000095d8a5289f7cab7d39a5299f7cab7d393
:10b7d000c0b7d8292dc0b7c0d4b890d4b8cf607244
:10b7e000fc015aff011aac2c72bff0af8cc2b7f744
:10b7f0004f5a1a2cc0b7ecf80d5a1af80a5ad4b896
:10b800009018d4b89bd589cab81199cab811c0b5d7
:10b81000f9d4b8651829c0b80689cab82799cab832
:10b8200027d4b865c0b5f9d4b89088cab83e98cacc
:10b83000b83ef8b9bff84aafd4ff09c0b5f928d46b
:10b84000b89b29c0b81989cab85499cab854d4b891
:10b8500065c0b5f9d4b89018d4b8cfc3b8b0d4b8cf
:10b860009b29c0b846d4b8cfcbb86cd518d4b9157d
:10b8700028f8b9bff85cafd4ff094aacc2b88c8cc9
:10b88000c2b88b4ad4ff032cc0b87fd5d4b542d5fb
:10b89000f810bff804af4fb84fa8d58f739f73f857
:10b8a00010bff804af985f1f885f6072bff0afd51c
:10b8b000f8b9bff83aafd4ff09c0b5f9f8b9bff885
:10b8c0002fafd4ff09f800a8b8d4b89bc0b5f9f8d9
:10b8d00011baf8f9aa98bc88ac9ccab8e18cc2b875
:10b8e000f14ac2b8f5528af4aa9a7c00ba2cc0b8c0
:10b8f000d9fc00f6d52aff00d5f811baf8f9aaf854
:10b9000000b8a84ac2b913528af4aa9a7c00ba189d
:10b91000c0b9032ad598bd88adf810bff815afd4cb
:10b92000ff60f8005ff810bff815afd4ff09d54edf
:10b9300065772066696c650d0a00456e64206f6648
:10b94000206275666665720a0d00546f70206f661e
:10b95000206275666665720a0d003e003a00d4b832
:10b96000f91af810bff80eaf9a5f1f8a5ff8005af5
:10b97000f810bff80aaf9a5f1f8a5ff810bff8028d
:10b98000aff8005fbaaaf811bdf8f9add4bd2ff831
:10b9900010bff802aff8015ff800baaaf811bdf8bd
:10b9a000f9add4bd2fd54fc2b9afff21cbb9a62f6a
:10b9b000d5d4bb91f810b8f810a89d58188d58c070
:10b9c000ba40d4bb919dba8daac0ba40d4ba740f04
:10b9d000ff27c2b9ecd4bb918dd4ba7fd4ba740f0f
:10b9e000ff2ccab9e91fc0b9ccc0ba401f4fc2b9b9
:10b9f000e9aeff27c2b9dc8ed4ba7fc0b9edd4baa4
:10ba0000740fff27c2ba22d4bb919dd4ba7f8dd4c4
:10ba1000ba7fd4ba740fff2ccaba1f1fc0b9fec0b8
:10ba2000ba401f4fc2ba1faeff27c2ba128ed4ba95
:10ba30007fc0ba23d4bb918dfa0fc2ba44d4ba7f67
:10ba4000f800f6d5f801f6d5d4bb918dc2ba44ff03
:10ba500008c3ba448df960d4ba7fc0ba40d4bb9150
:10ba60008dc2ba44ff08c3ba448dfc08f960d4ba49
:10ba70007fc0ba404fc2ba7dff21cbba742fd55ace
:10ba8000f810b8f802a808c2bad88d739d738f73e6
:10ba90009f73f810bff803af0fff04cabaaaf800eb
:10baa0005ff8bfbff8a2afd4ff090aadf810bff826
:10bab000a6afd4ff48f8205f1ff8005ff810bff86a
:10bac000a6afd4ff09f810bff803af0ffc015f6009
:10bad00072bf72af72bdf0ad1ad5aeff30cbbae90e
:10bae000ff0ac3bae9fc008ed5ff008ed573d4ba25
:10baf000dacbbb1560f073ff41cbbb10ff06cbbbad
:10bb00001560f0ff61cbbb11ff06cbbb16c0bb11ac
:10bb100060f801f6d560f800f6d573d4badac3bb85
:10bb20002660f0ff30d560f0fadfff37d58f739fc6
:10bb3000730fff210fff2cc2bb86cbbb860fd4ba7d
:10bb4000dac3bb481fc0bb310fff21cbbb7e0fff49
:10bb500048c2bb650fff68c2bb650fd4baedc3bb5b
:10bb60007e1fc0bb481f0fff2cc2bb720fff21c33b
:10bb7000bb7e6072bff0afd4ff451ff801d5607285
:10bb8000bff0aff803d56072bff0afd4ff5df8002f
:10bb9000d5d4ba740fc2bbead4badacbbbda0fff82
:10bba00052c2bbbc0fff72c2bbbcd4bddcc3bbb4b2
:10bbb000f800f6d5f800bdadf807f6d51f0fd4bada
:10bbc000edc3bbd61f0f2fff21c3bbd60fd4bb1aab
:10bbd000adf800bdf6d52fc0bbaad4bb2dff03c264
:10bbe000bbe6f800f6d5f805f6d5f800bdadf803cc
:10bbf000f6d5f810b8f80ca89a58188a58f810b862
:10bc0000f802a808c2bc368f739f73f810bff80300
:10bc1000aff8005f9abd8aadf810bff8a6afd4ffa9
:10bc20004bf8205f1ff8005ff810bff8a6afd4fff5
:10bc3000096072bff0af0fff21cbbc679fb98fa91e
:10bc40000fff3ac2bc500fff21cbbc501fc0bc40fd
:10bc5000f8005f8f739f7399bf89afd4be73607212
:10bc6000bff0aff83a5f1ff8bfb9f8aaa9d4ba7409
:10bc7000d4bcf9cbbc8619191909cabc70f801f6f5
:10bc8000d5f800c0bc7f49ff01cabc9349d4ba7f34
:10bc9000c0bc81ff01cabca949d4ba7fd4bb91c33f
:10bca000bcec8dd4ba7fc0bc81ff01cabcc349d4ef
:10bcb000ba7fd4bb91c3bcec9dd4ba7f8dd4ba7f7c
:10bcc000c0bc81ff01cabcdaf810b7f812a7f8c0ef
:10bcd00057174957170957c01012d4bb91c3bcec72
:10bce0008dfa0f5249f1d4ba7fc0bc81f8bfbff8ba
:10bcf0009aafd4ff09f800f6d58f739f7349aefa57
:10bd000080cabd1a4f528ef7c2bcfd49fa80c2bd2f
:10bd10000bf801f66072bff0afd54f528efa7ff785
:10bd2000cabd110fff21c3bd11f800f66060d5f840
:10bd300010bff825afd4bdb8c3bdb78cc2bd2ff8b6
:10bd400025aff810bfd4bf26f810bff825af8d730c
:10bd50009d73d4bbf2f810bff802af0fc2bda3763b
:10bd600073f810bff803af0f73ff04c2bd8ef81055
:10bd7000bff8a6aff8205f1f5f1f5f1ff8005f1faf
:10bd80002f2f2f2fd4ff0960f0fc01c0bd6860f891
:10bd900010bff825afd4ff09f8b9bff837afd4ff0b
:10bda0000960fecbbdaff8bfbff89aafd4ff096002
:10bdb00072bdf0adc0bd2fd5f800bcac0dc2bdd872
:10bdc000ff02ae1d8ec2bdd04d5f1f1c2ec0bdc474
:10bdd000f8005f1d1dfc00d5ff005fd50fff24cad2
:10bde000bdf2f810bdf80cad4dae0dad8ebdf80036
:10bdf000f6d5f810b8f802a808cabe02f800bdad22
:10be0000f6d5f810b8f80ea848ae08a88eb808ca3b
:10be1000be16f801f6d58f739f734852fa80cabeda
:10be2000364ff7c2be1a48fa80c2be261818607292
:10be3000bff0afc0be0e02fa7f524ff7cabe2c4f02
:10be4000aeff2ec2be698eff21c3be2c6072bff052
:10be5000aff800ae48bd48ad8eff31c2be62f800fb
:10be6000f6d59dadf800f6bdd50fae6072bff0af50
:10be7000c0be54f810b8f802a808c2be7ed5f810ab
:10be8000b8f80aa848ae08a88eb84faeff21cbbebe
:10be9000978e5818c0be8a2808f98058189a5818e2
:10bea0008a5818f80058f810bff80aaf985f1f8832
:10beb0005fd5d4f000f8f9acf811bc4cc2beca5240
:10bec0008cf4ac9c7c00bcc0bebb9cff10bcf825b5
:10bed000aff810bf9c5f1f8c5f2f8c739c73f802b0
:10bee000acf800bcd4f009f800aff810bf6072bc29
:10bef000f0acd4f009d4f00cc0b5f9d4f003f825b7
:10bf0000aff810bff802acf800bcd4f006f825afcb
:10bf1000f810bf4fbc0facf800aff810bfd4f0065c
:10bf2000d4f00fc0b5f90fff27c2bf430fc2bf4205
:10bf3000ff61cbbf3eff1bc3bf3e0fff205f1fc093
:10bf4000bf26d51f4fc2bf42ff27c2bf26c0bf4476
:10bf50004564742f41736d202830322f32312f30d9
:10bf600036290a0d28632920436f70797269676842
:10bf7000742032303036206279204d696368616503
:10bf80006c20482e2052696c65790a0d0046696c58
:10bf900065204572726f720a0d004572726f720ae7
:10bfa0000d000a0d2020202020004144c401f4008f
:10bfb0004144c3017400414443c9027c004144c967
:10bfc00002fc00414ec401f200414ec902fa004297
:10bfd000b102340042b202350042b302360042b42c
:10bfe0000237004244c6023300424eb1023c0042d6
:10bff0004eb2023d00424eb3023e00424eb4023ffa
:10c0000000424ec6023b00424ed102390042d102ec
:10c01000310042d202300042da023200424eda02ed
:10c020003a004445c30520004449d3017100474804
:10c03000c9059000474ccf0580004944cc01000061
:10c04000494ec3051000494ed004ba5d4952d8018b
:10c0500060004c4244c603c3004c424ec603cb00b2
:10c060004c424ed103c9004c424eda03ca004c4246
:10c07000d103c1004c42d203c0004c42da03c200db
:10c080004c44c10540004c44c902f8004c44ce0465
:10c09000ba344c44d801f0004c4458c10172004cf1
:10c0a0005344c601cf004c5349c501cc004c534efc
:10c0b000c601c7004c534ed101c5004c534eda01a6
:10c0c000c6004c53d101cd004c53da01ce004d4196
:10c0d00052cb0179004e42d20138004e4c42d2017f
:10c0e000c8004e4fd001c4004fd201f1004f52c9d9
:10c0f00002f9004f55d404ba485048c905b0005061
:10c100004ccf05a0005245d40170005245d1017ab0
:10c110000053c401f5005341d60178005344c201d5
:10c120007500534442c9027d005344c902fd0053c7
:10c1300045d005d0005345d1017b005345d805e0db
:10c14000005348cc01fe005348d201f60053484c3e
:10c15000c3017e00534852c301760053cd01f7005e
:10c16000534dc2017700534d42c9027f00534dc960
:10c1700002ff005354d2055000535458c4017300b9
:10c18000584fd201f3005852c902fb00454ec40477
:10c19000b9b14f52c704b9c244c204b9cc44d704a0
:03c1a000b9fe00e5
:00000001ff
